:020000040800F2
:10000000E02A002099010008771500081112000865
:1000100075150008290200081D19000800000000DD
:1000200000000000000000000000000001010008C6
:100030002B02000800000000450100089915000887
:10004000B3010008B3010008B3010008B3010008C0
:10005000B3010008B3010008B3010008B3010008B0
:10006000B3010008B3010008B3010008B3010008A0
:10007000B3010008B3010008B3010008B301000890
:10008000B3010008B3010008B3010008B301000880
:10009000B3010008B3010008B3010008B301000870
:1000A000B301000825160008B3010008B3010008D9
:1000B000311600083D160008B3010008B30100081E
:1000C000B3010008B3010008B3010008B301000840
:1000D000B3010008B3010008B3010008B301000830
:1000E000B3010008B3010008B3010008DFF80CD029
:1000F00000F088F8004800475D190008E02A002059
:10010000224B19680868B0E8F00F80F30988BFF344
:100110006F8F4FF0000080F311884EF00D0E704786
:100120000000000006480068006880F3088862B696
:1001300061B6BFF34F8FBFF36F8F00DF00BF00BF0B
:1001400008ED00E0EFF30980BFF36F8F0F4B1A68E3
:1001500020E9F00F106008B54FF0500080F31188CF
:10016000BFF34F8FBFF36F8F02F0F8FA4FF000002C
:1001700080F31188BDE8084019680868B0E8F00FFE
:1001800080F30988BFF36F8F704700BF2C000020F9
:10019000EFF3058070470000064880470648004797
:1001A000FEE7FEE7FEE7FEE7FEE7FEE7FEE7FEE727
:1001B000FEE7FEE723160008ED00000840EA010311
:1001C0009B0703D009E008C9121F08C0042AFAD20D
:1001D00003E011F8013B00F8013B521EF9D27047D1
:1001E000D2B201E000F8012B491EFBD27047002279
:1001F000F6E710B513460A4604461946FFF7F0FF26
:10020000204610BD064C074D06E0E06840F00103B3
:1002100094E8070098471034AC42F6D3FFF76AFF22
:100220000433000824330008FEE7704772B6FEE787
:10023000012001F0A9FBFBE72DE9F84FDFF8B891A9
:100240000024A9F1040B23460F2709F1040AABF19E
:10025000040EC9E00125A5402A40AA427DD1674E7F
:10026000D1F804C0ACEB0608B44532D014DCBCF1C4
:10027000030F3AD009DCBCF1000F2AD0BCF1010F0A
:100280001CD0BCF1020F31D11DE0BCF1110F17D011
:10029000BCF1120F2AD119E0B8F5881F19D006DC7D
:1002A000B8F5803F15D0B8F5801F1FD111E0B8F523
:1002B000001F0ED0B8F5041F18D10AE0CB6815E076
:1002C000CB681B1D12E0CB6808330FE0CB680C3302
:1002D0000CE08B682BB1012B4FF0080303D0456174
:1002E00004E0042302E0056100E00023FF2A01D8B6
:1002F000064601E000F104064FEA840501D9A5F1A4
:100300002005D6F8008007FA05FC28EA0C0803FA55
:1003100005F548EA0508C6F800804D68ED0062D58D
:10032000374DAE6946F00106AE61AD6924F00306B3
:1003300005F001050095334D06EB050CDCF808507F
:10034000A607360F07FA06F825EA0805DFF8B88091
:10035000404503D14FF0000817E044E0DFF8AC80DF
:10036000404502D14FF001080FE0DFF8A48040457E
:1003700002D14FF0020808E0DFF89880404502D132
:100380004FF0030801E04FF0040808FA06F848EAC5
:100390000508CCF808804D68D9F80060ED024D469C
:1003A00001D5164300E096432E604D68DAF80060F0
:1003B000AD02554601D5164300E096432E604D68C8
:1003C000DBF80060AD035D4601D5164300E09643BF
:1003D0002E604D68DEF80060ED03754601D51643CA
:1003E00000E096432E60641C0D682A46E5407FF4C9
:1003F00031AFBDE8F88F0000080401400000111083
:10040000001002400000014000080140000C0140C3
:1004100000100140001401400AB101617047090455
:10042000FBE7000001488068704700001C000020C6
:100430000248816802781144816070471C000020E6
:10044000074810B5016841F010010160032000F079
:10045000A1F8002000F006F800F04AF8002010BDD6
:100460000020024030B505461C4887B0816941F440
:1004700000618161806906A900F40060009001A814
:1004800000F030F900F05EF91549164AB0FBF1F1C1
:100490001548491E0260416040F2E7320021C0E980
:1004A00003218160816100F049FB040012D10E48F4
:1004B00000F086FB04000DD1192000F03DF8102D4E
:1004C00007D200222946192000F044F807480560A9
:1004D00000E0012407B0204630BD000000100240BB
:1004E00040420F00002C0140C401002020000020E9
:1004F0000F4808B5816941F001018161816901F00E
:1005000001010091C16941F08051C161C0690022BF
:1005100000F0805000900F21901E00F01BF805485D
:10052000416821F0E06141F00071416008BD0000C8
:100530000010024000000140002809DB00F01F020B
:10054000012191404009800000F1E020C0F8001135
:1005500070470000F0B40E4B1B680C46C3F3022337
:10056000C3F10705042D00D90425191D072901D25F
:10057000002300E0DB1E012606FA05F1491E21409A
:1005800099409E40761E16403143F0BC01F0C7B939
:100590000CED00E0064900F0070208684FF6FF0383
:1005A000184040EA0220034A1043086070470000E8
:1005B0000CED00E00000FA052DE9F0470F460500BC
:1005C00061D0434E306800F00700B84209D230686D
:1005D00020F0070038433060306800F00700B84270
:1005E00051D128683B4C810712D5400703D560687C
:1005F00040F4E06060602878000703D5606840F44C
:10060000605060606068A96820F0F0000843606096
:100610002878C00728D06868012810D021680228EF
:1006200010D0890700292EDA616821F00301014307
:100630006160FFF7F7FE804641F288390DE02168DE
:100640008903EFE78901EDE7FFF7ECFEA0EB080176
:10065000494502D90320BDE8F0876068696800F069
:100660000C00B0EB810FEFD1306800F00700B8420A
:100670000BD9306820F0070038433060306800F054
:100680000700B84201D00120E5E72878400705D5EA
:100690006068E96820F4E06008436060287800073B
:1006A00006D56068296920F4605040EAC1006060A6
:1006B00000F058F86168084AC1F30311515CC84062
:1006C0000649086006480068FFF7CCFE0020C2E734
:1006D000002002400010024086320008280000205E
:1006E000200000200F2202600C4A536803F003032D
:1006F0004360536803F0F0038360536803F4E063DE
:10070000C36052684FF4E06303EAD2020261044816
:10071000006800F007000860704700000010024009
:10072000002002400448054900684968044AC1F3B2
:100730000221515CC8407047280000200010024090
:10074000963200080448054900684968044AC1F324
:10075000C221515CC84070472800002000100240B0
:10076000963200080E4A51680E4801F00C03042B23
:1007700011D0082B0FD10C48C1F38343C903C05CCF
:100780000AD55168084AC1F34041921E515C054A9E
:100790005043B0FBF1F070470449484370470000F4
:1007A0000010024000127A007632000800093D0075
:1007B0002DE9F84F040070D02078C04DC00749D013
:1007C0006868C0F38100012807D06868C0F3810021
:1007D000022809D16868C00306D52868800339D586
:1007E00060680028E7D035E06068B0F5803F0BD046
:1007F00010B1B0F5A02F11D0286820F48030286007
:10080000286820F4802002E0286840F480302860C6
:10081000606890B1FFF706FE06460AE0286840F4DB
:1008200080202860F0E700BFFFF7FCFD801B6428F4
:1008300073D828688003F7D50CE0FFF7F3FD064670
:1008400005E000BFFFF7EEFD801B6428F0D82868A4
:100850008003F7D420789A4E80074FF001094FF0BB
:10086000000839D5686810F00C0F07D06868C0F32D
:100870008100022809D16868C00306D4286880076F
:1008800014D52069012808D110E02069B0B1C6F85C
:100890000090FFF7C7FD074605E00AE1FFF7C2FD3C
:1008A000C01B0228C4D828688007F7D5286861696A
:1008B00020F0F80040EAC10028600DE0C6F8008092
:1008C000FFF7B0FD074604E0FFF7ACFDC01B0228B0
:1008D00023D828688007F7D4207800072CD57948DA
:1008E000A169D9B1C0F80090FFF79CFD074604E06C
:1008F000FFF798FDC01B02280FD8686A8007F7D55C
:1009000071484FF4FA510068B0FBF1F0009000BF5D
:100910000098411E0091FAD20EE080E0C0F80080FD
:10092000FFF780FD074604E0FFF77CFDC01B0228AF
:1009300075D8686A8007F7D42078400760D5E869E1
:100940000027C00008D4E86940F08050E861E869F9
:10095000012700F0805000905C480168C90513D45D
:100960000168834641F480710160FFF75BFD8246B8
:1009700006E000BFFFF756FDA0EB0A0064284ED842
:10098000DBF80000C005F5D5E06801280AD008B101
:10099000052813D0286A20F001002862286A20F078
:1009A000040002E0286A40F001002862E06841F299
:1009B000883B98B1FFF736FD82460BE0286A40F08D
:1009C00004002862EEE700BFFFF72CFDA0EB0A0150
:1009D00059455AD8286A8007F6D50CE0FFF722FD62
:1009E000824605E0FFF71EFDA0EB0A0159454CD8F1
:1009F000286A8007F6D41FB1E86920F08050E861CA
:100A0000E06988B36968C1F38101022944D00228F2
:100A1000C6F8608004D0FFF705FD044638E034E0F6
:100A2000FFF700FD074604E0FFF7FCFCC01B0228AF
:100A30002BD828688001F7D4206AB0F5803F05D113
:100A40006868A16820F4003008436860D4E90801B0
:100A50000843696821F4741108436860C6F860901F
:100A6000FFF7E0FC044606E025E000BFFFF7DAFCF4
:100A7000001B022809D828688001F7D51BE000BFB9
:100A8000FFF7D0FC001B022802D90320BDE8F88F35
:100A900028688001F4D40EE00128F7D06868226A43
:100AA00000F48031914204D1616A00F470108842F0
:100AB00001D00120EAE70020E8E700000010024032
:100AC00000004242800442422800002000700040A2
:100AD0007047704770B590F83C20012A26D0012459
:100AE00080F83C40022280F83D2003685A689D68E7
:100AF00022F070060A6832435A600D4B02689A422F
:100B000008D0B2F1804F05D00A4B9A4202D00A4B6E
:100B10009A4204D1496825F080031943916080F816
:100B20003D40002180F83C10084670BD022070BD99
:100B3000002C0140000400400008004010B50400F3
:100B400003D094F83D0010B107E0012010BD002053
:100B500084F83C00204600F01FF8022084F83D0095
:100B6000211D206800F070FD012084F8460084F803
:100B70003E0084F83F0084F8400084F8410084F887
:100B8000420084F8430084F8440084F8450084F867
:100B90003D00002010BD000008B5006806498842ED
:100BA00008D10648C16941F00401C161C06900F083
:100BB0000400009008BD0000000800400010024042
:100BC00090F83D10012901D001207047022180F8E2
:100BD0003D100168CA6842F00102CA6000680B4912
:100BE000884208D0B0F1804F05D00949884202D030
:100BF0000849884204D1816801F00701062903D021
:100C0000016841F00101016000207047002C0140A3
:100C1000000400400008004070B5044690F83C0015
:100C20000025012817D0012684F83C60022084F8B2
:100C30003D002068826822F0770222F47F428260C1
:100C40000868502838D00DDC20284FD005DC90B340
:100C5000102811D14AE0022070BD302846D040282B
:100C60000AD13BE060282FD070280DD0B0F5805F0E
:100C700003D0B0F5005F12D0012584F83D6000205C
:100C800084F83C00284670BDCB68D1E9012120687A
:100C900000F010FD2068816841F0770109E0CB6821
:100CA000D1E90121206800F005FD2068816841F448
:100CB00080418160E1E719E0CA684968206800F076
:100CC000ADFD5021206806E0CA684968206800F040
:100CD000B6FD6021206800F0F7FCCEE7CA684968DD
:100CE000206800F09BFD40212068F4E7226801465F
:100CF0001046F0E72DE9F0410D46040003D094F8CA
:100D00003D0018B108E00120BDE8F081002084F822
:100D10003C00204600F040F8022084F83D002068A6
:100D2000816844F2070291438160211D206800F030
:100D30008BFC226890689169166A2B68AF6903433F
:100D400040F20330814341EA0721A868EF69084374
:100D50004FF6FC418843E96840EA072001432869CF
:100D60002F6A000140EA0730084369686D6926F080
:100D7000220646EA0515294393602268906154F8DB
:100D8000460B0162012004F81F09E0752076E07629
:100D90002077A0750020B7E710B586B0002100913C
:100DA0000191029103910368234901222348B3F181
:100DB000804F23D0224CA3421ED1CB6943F00203C3
:100DC000CB61CB6903F0020304938B6943F0040306
:100DD0008B618969029201F004010491C0210091A4
:100DE0006946FFF729FA002205211D20FFF7B2FB13
:100DF0005FF01D00FFF7A0FB06B010BDCB6943F00C
:100E00000103CB61CB6903F0010304938B6943F0C9
:100E100004038B618969029201F0040104910321AA
:100E200000916946FFF708FA002205211C20FFF710
:100E300091FB1C20DEE7000000100240000801408A
:100E400000040040704770B50446006801694FF027
:100E50000005C943890715D4C168C943890711D45E
:100E6000E91E016101202077206880698007204603
:100E700002D0FFF7E7FF04E000F0BEF8204600F0E4
:100E800050F9257720680169C943490717D4C1681B
:100E9000C943490713D46FF0040101610220207790
:100EA0002068806910F4407F204602D0FFF7CAFF17
:100EB00004E000F0A1F8204600F033F9257720681F
:100EC0000169C943090716D4C168C943090712D487
:100ED0006FF008010161042020772068C069800755
:100EE000204602D0FFF7AEFF04E000F085F8204670
:100EF00000F017F9257720680169C943C90617D49E
:100F0000C168C943C90613D46FF0100101610820FC
:100F100020772068C06910F4407F204602D0FFF798
:100F200091FF04E000F068F8204600F0FAF8257719
:100F300020680169C943C90708D1C168C943C90705
:100F400004D1891E0161204600F0ECF82068016997
:100F5000C943090609D4C168C943090605D46FF01D
:100F6000800101612046FFF7B3FD20680169C94394
:100F7000490609D4C168C943490605D46FF0400148
:100F80000161204600F0D8F820680169C94389064C
:100F90000BD4C168C943890607D46FF020010161F1
:100FA0002046BDE87040FFF794BD70BD00B585B028
:100FB0000021009101910291039100680B49884240
:100FC00012D10B48816941F008018161806969464D
:100FD00000F0080004904FF440700090022001904F
:100FE00003900448FFF728F905B000BD0008004051
:100FF00000100240000C0140704770B5044690F8A4
:101000003C0000260D4601280FD0012084F83C004A
:101010006AB1042A1DD0082A2FD00C2A3FD00126FD
:10102000002084F83C00304670BD022070BD20686E
:1010300000F052FB2068816941F00801816120685D
:10104000816921F004018161206881692A69114365
:1010500011E0206800F068FB2068816941F40061BC
:1010600081612068816921F48061816120688169E2
:101070002A6941EA02218161D2E7206800F080FB01
:101080002068C16941F00801C1612068C16921F08F
:101090000401C1612068C1692A69114311E0206817
:1010A00000F09AFB2068C16941F40061C1612068C9
:1010B000C16921F48061C1612068C1692A6941EA7E
:1010C0000221C161ACE710B5040003D094F83D00E3
:1010D00010B107E0012010BD002084F83C0020463C
:1010E00000F01EF8022084F83D00211D206800F069
:1010F000ABFA012084F8460084F83E0084F83F00F3
:1011000084F8400084F8410084F8420084F84300E9
:1011100084F8440084F8450084F83D00002010BDA8
:101120007047704700680349884201D1FFF780B9D2
:1011300070470000002C0140704770B5040004D0D7
:1011400094F84100002510B106E0012070BD84F83C
:101150004050204600F024F8242084F84100206804
:10116000C16821F40051C160204600F07BFB20687B
:10117000016921F4904101612068416921F02A014F
:1011800041612068C16841F40051C160656420205C
:1011900084F8410084F842006563002070BD0000BF
:1011A00030B585B000240094019402940394006843
:1011B0001449884224D11448816941F480418161F5
:1011C000816901F480410491816941F004018161E8
:1011D00080690E4D00F0040004904FF40070009000
:1011E000022001900320039069462846FFF724F867
:1011F0002815CDE90004694628460294FFF71CF83B
:1012000005B030BD00380140001002400008014028
:10121000FEE7000010B5194A0121102000F00AFC79
:10122000174C164A0021A061D83A164800F03CFC41
:10123000124A2060B43A0021134800F035FC0F4AEE
:101240006060903A0021114800F02EFC0B4AA0602B
:101250006C3A00210E4800F027FC084AE060483A4A
:1012600000210C4800F020FC044A2061243A0021AF
:10127000094800F019FC606110BD00005C320008F4
:101280000000002081150008911500088D2300083A
:101290003102000879150008891500082DE9F0478A
:1012A00086B000244248009401940294039481691A
:1012B00041F010018161816901F01001049181699F
:1012C00041F020018161816901F02001049181696F
:1012D00041F004018161816901F004010491816997
:1012E00041F0080181618069DFF8C88000F00800E2
:1012F0004FF400550490002229464046FFF78CF831
:10130000DFF8B490002241F630114846FFF784F828
:10131000DFF8A8A04FF20107002239465046FFF738
:101320007BF80122C0215046FFF776F8009502268F
:1013300001250396CDE9015469464046FEF77CFF3E
:101340004FF49870CDE90005CDE90246694648465C
:10135000FEF772FF00970396CDE9015469465046A7
:10136000FEF76AFF32208DE8310069465046FEF7ED
:1013700063FF4FF4C0501127CDE90007CDE90246C5
:1013800069464846FEF758FFE8038DE83100694694
:101390004846FEF751FFC020CDE900070320CDE904
:1013A000024069465046FEF747FF06B0BDE8F087A9
:1013B000001002400010014000080140000C0140F4
:1013C00010B58CB024216846FEF711FF00241548A3
:1013D00009944FF080410A94C0E900144FF6FF7160
:1013E000C0E90241046184610120CDE90004CDE936
:1013F00002040494CDE9054007946946094808941D
:10140000FFF778FC08B1FEF711FF099409A9054818
:101410000A94FFF75FFB002801D0FEF707FF0CB02E
:1014200010BD0000A400002010B58CB02421684637
:10143000FEF7DDFE00241548099413490A94C0E91B
:1014400000144FF6FF71C0E902410461846101207C
:10145000CDE90004CDE902040494CDE905400794E8
:1014600069460A480894FFF745FC08B1FEF7DEFE1E
:10147000099409A905480A94FFF72CFB002801D01C
:10148000FEF7D4FE0CB010BD00040040EC000020BC
:1014900010B58EB000240794089409940A940B9414
:1014A0001C2168460C94FEF7A2FE234821490160E6
:1014B0004721C0E901146321C0E903148461FFF7E7
:1014C0003DFB08B1FEF7B2FE4FF48050079007A92C
:1014D0001948FFF7A1FB08B1FEF7A8FE1648FFF771
:1014E000F2FD08B1FEF7A2FE0B940BA912480C9472
:1014F000FFF7F0FA08B1FEF799FE60200090142083
:10150000CDE90104082269460B480494FFF775FDF4
:1015100008B1FEF78BFE0C22694607480194FFF7DD
:101520006CFD08B1FEF782FE0348FFF73FFD0EB0E9
:1015300010BD000000080040340100200C4810B528
:101540000A4901604FF4E1314160002181600C22C1
:10155000C160C0E904128161C161FFF7EEFD00289E
:1015600003D0BDE81040FEF761BE10BD0038014059
:101570007C010020FEE7FEE7012000F005FAFBE712
:10158000012000F001FAFBE7012000F0FDF9FBE784
:10159000012000F0F9F9FBE710B5502080F3118825
:1015A000BFF34F8FBFF36F8F01F04AFC18B10449AE
:1015B0004FF080500860002080F3118810BD0000BB
:1015C00004ED00E030B58FB028216846FEF70FFE2D
:1015D00014210AA8FEF70BFE01210804CDE9001032
:1015E0000024029402250491CDE907504FF4E01045
:1015F00009906846FFF7DCF808B172B6FEE70F20E5
:10160000CDE90A054FF48060CDE90C4002210AA81B
:101610000E94FEF7D1FF002801D072B6FEE70FB09E
:1016200030BD70470148FFF70EBC0000C401002028
:101630000148FFF708BC0000A40000200148FFF7A4
:1016400002BC0000EC000020F0B50268164B174CFD
:10165000174D4FF08047984205D0B84203D0A042C2
:1016600001D0A84203D122F070064A683243984262
:1016700005D0B84203D0A04201D0A84203D122F441
:101680004074CA6822434C6922F0800222430260FF
:101690008A68C2620A688262984201D1096901635C
:1016A00001214161F0BD0000002C01400004004018
:1016B0000008004010B5846842EA032224F47F4405
:1016C0000A432243826010BD826822F070020A43FE
:1016D00042F007018160704730B5036A026A22F068
:1016E000010202624268846924F073050C682C438D
:1016F00023F002058B682B430A4DA8420BD123F03F
:101700000805CB6822F440722B434D6923F0040393
:1017100015438A692A4342608461496841630362D0
:1017200030BD0000002C014030B5026A036A23F08E
:1017300010030362436884690D6824F4E64444EAB4
:1017400005248D6822F0200242EA05120B4DA842C2
:101750000ED1CD6822F0800242EA05124D6923F4D1
:10176000406343EA85038D6922F0400243EA850322
:101770004360846149688163026230BD002C01408E
:1017800030B5036A026A22F4807202624268C46958
:1017900023F4007324F073050C682C438D6843EA2E
:1017A00005230C4DA8420ED1CD6823F4006343EA13
:1017B00005234D6922F4405242EA05128D6923F453
:1017C000806342EA05124260C4614968C1630362F2
:1017D00030BD0000002C014030B5046A026A22F4DA
:1017E000805202624268C3690D6823F4E64343EA0B
:1017F00005238D6824F4005444EA0534064DA842BC
:1018000004D14D6922F4804242EA85124260C361EC
:1018100049680164046230BD002C014010B5036AC0
:10182000046A24F001040462846924F0F00444EAA8
:10183000021423F00A020A438461026210BD10B54B
:10184000036A046A24F010040462846923F0A0038C
:1018500024F4704444EA023243EA011182610162D5
:1018600010BD000070B5044600680169E26821F40B
:101870004051114301612169A0680843616908432F
:101880002168CA6841F20C639A430243CA60206827
:101890004169A26921F44071114341611E492068E8
:1018A000884202D1FEF74EFF01E0FEF73BFF00EB5E
:1018B000C00101EB0012606864218000B2FBF0F30C
:1018C000B3FBF1F36FF018067343B2FBF0F5B2FB14
:1018D000F0F605EB8305322303EB0515B5FBF1F5B7
:1018E000B6FBF1F605F0F00505EB0615B2FBF0F6D8
:1018F000B2FBF0F0B0FBF1F06FF01802504306EBD2
:10190000800003EB0010B0FBF1F0216800F00F0045
:101910002844886070BD000000380140FEE70907D8
:10192000090E002804DB00F1E02080F80014704765
:1019300000F00F0000F1E02080F8141D704702E075
:1019400008C8121F08C1002AFAD17047704700204A
:1019500001E001C1121F002AFBD17047FEF770FDA4
:10196000FFF730FEFFF79AFCFFF792FDFFF728FD27
:10197000FFF75AFDFFF7E2FD00F020F8FFF74AFC01
:1019800000F038F8FEE7000010B5EFF3058149B923
:10199000EFF3108131B908490968022905D1EFF345
:1019A000118111B16FF0050403E0002408B100F0CB
:1019B00021FE204610BD00007C000020EFF30580D2
:1019C00058B9EFF3108040B909490868022801D0DE
:1019D00030B109E0EFF3118030B16FF005007047CE
:1019E00001200860002070474FF0FF307047000072
:1019F0007C00002010B5EFF3058060B9EFF3108094
:101A000048B90B490868022802D0012806D00BE02B
:101A1000EFF3118040B16FF0050010BD02200860A7
:101A200000F050FE002010BD4FF0FF3010BD000050
:101A30007C000020F8B514464FF00005EFF3058256
:101A40006ABBEFF3108252BB164A1268022A02D117
:101A5000EFF311821ABB10B309B3ACB1D4E902326F
:101A60006BB1502A1BD32269CAB1676900FB01F62A
:101A7000B74214D30025009500F01AFF07E072B9B1
:101A8000226962B9626952B9002200F0EDFE0500D8
:101A900005D00CB1216800E0002100F075FD28465A
:101AA000F8BD00007C000020F0B585B04FEA0103CE
:101AB0004FF00004EFF305810394A1BBEFF3108115
:101AC00089BB21490968022902D1EFF3118151BB79
:101AD00048B3802618218DF8104004AD42B3176832
:101AE00007B13D4697691FB139467F1E382F02D294
:101AF0001779FF0702D0002005B0F0BD576907B184
:101B0000BE08D2F808C0BCF1000F0DD0D4685C2C20
:101B100018D312693AB137B18DE80610324629461A
:101B200001F04FF903900DE0D7685FB912694AB927
:101B300003AACDE90012B2B2294601F015F9012835
:101B400000D003940398D7E77C0000202DE9F041F2
:101B5000134C0F46054666692068001D00F01AFC0C
:101B6000681C07D137B12168BDE8F0410D48091D57
:101B700000F060BC20683544B5424560216805D25C
:101B8000A068BDE8F041091D00F03CBC6068091D7B
:101B900000F038FC206B854200D22563BDE8F0815F
:101BA0002C000020FC0600202DE9F041054600F045
:101BB0004DFC2D4C2069401C206120682B4F10B13A
:101BC000E06930B32BE025602069012827D1002689
:101BD00006EB860007EB800000F006FC761C382E32
:101BE000F6D3234800F000FC2148143000F0FCFB41
:101BF0001F48283000F0F8FB1D483C3000F0F4FB93
:101C00001B48503000F0F0FB194860601430A060B1
:101C100005E02068E96AC06A884200D82560E06A69
:101C2000401CE0626864E86AA169884200D9A0614A
:101C300000EB800007EB8000291D00F0FBFB00F0AB
:101C400025FCE06900280CD02068E96AC06A884257
:101C500007D208494FF080500860BFF34F8FBFF3A1
:101C60006F8FBDE8F08100002C0000204C020020A6
:101C7000AC06002004ED00E038B500F0E7FB104CA6
:101C8000A068C8B90F4800F0AFFB0E48143000F050
:101C9000ABFB0C482060143060600A4B00202833F6
:101CA000009003F1500210210A2000F001FEA06014
:101CB00010B105A100F068FCBDE8384000F0E6BBBB
:101CC0006800002010070020546D725100000000D1
:101CD00030B4026C0B46002A0BD0C1681144C160BD
:101CE0004468A14201D30168C16030BC1846FEF7C8
:101CF00065BA30BC70472DE9F041856B1746044644
:101D00000026026C82B1C7B1E068FEF757FAE168BD
:101D1000206C091AE1602268914202D26168081AB7
:101D2000E060022F16D017E02068A8B9606801F0C3
:101D3000EBF80646002060600EE0A068FEF73EFA71
:101D4000216CA0680844A0606168884204D32068C0
:101D5000A06001E005B16D1E6D1CA5633046BDE8B5
:101D6000F08110B5044690F8590058B101280CD004
:101D700002280FD0502080F31188BFF34F8FBFF39C
:101D80006F8FFEE7206B00F095FB2046BDE810400A
:101D900000F090BB10BD000010484FF4C051420746
:101DA00006D0C01D0D4920F00700411AC1F5C051F1
:101DB0000B4A00230144C2E900030839103A21F01C
:101DC000070111604B600B600B1AC0E900139360B0
:101DD0004FF000405360D06070470000E00E0020DC
:101DE00090000020144E154CA6F29C474FF08058EE
:101DF000DFF84C9012E000BF00F028FBF068C568E7
:101E0000281D00F0C7FA2069401E2061E068401ECE
:101E1000E06000F03BFB2846FFF7A3FFE0680028E6
:101E2000EAD138680128F9D9C9F80080BFF34F8F8B
:101E3000BFF36F8FF2E70000E80600202C000020BF
:101E400004ED00E070B51D46049C51B1C4F80020BB
:101E5000C4E90F010121204600F05EFD84F84C50DA
:101E600070BD2460F4E72DE9F0470E46DDE90984F2
:101E70001746824691009946089DA522206BFEF7E1
:101E8000AFF96FF00301206B01EB8701084420F0EC
:101E90000707780707D0502080F31188BFF34F8FD2
:101EA000BFF36F8FFEE72218315C82F83410315C8B
:101EB00011B1401C1028F6D3002684F84360382D59
:101EC00000D33725E562C4E91356201D00F097FAC8
:101ED00004F1180000F093FA2461C5F1380064623F
:101EE000A061666584F858604A465146384600F05D
:101EF0003BFA2060B8F1000F01D0C8F80040BDE8FF
:101F0000F087000030B5114900E011460A688242AE
:101F1000FBD34B685C18844203D140681844486086
:101F2000084643681C18944209D1084C103C2468A8
:101F3000A24209D052681A4442600A6812680260DC
:101F4000814200D0086030BD0460F9E790000020B5
:101F500070B5002441600B4D0061914206D8D11A42
:101F60008269914206D2011D686807E09A4203D255
:101F7000994201D3012403E0011D286800F042FAD0
:101F8000204670BD6800002010B5044600F05EFADF
:101F9000A06B28B15FF0000400F078FA204610BD75
:101FA0000124F9E730B589B0304D55E00498002898
:101FB00006DADDE90601059A9047049800284BDB14
:101FC000069C606910B1201D00F0E4F902A800F041
:101FD000B9F8024604980A283ED2DFE800F0050569
:101FE000053D263705053D260598A16903460144B0
:101FF0002046FFF7ADFF00B3616A20468847E069DD
:10200000012829D1002000900598A16900234218D9
:102010001946204601F082F878B9502080F31188E3
:10202000BFF34F8FBFF36F8FFEE70598A06128B114
:10203000811813462046FFF78BFF0DE0502080F3F8
:102040001188BFF34F8FBFF36F8FFEE794F82C001A
:1020500010B9204600F02EFA002204A9A86800F06A
:10206000ADFD0028A2D109B030BD000068000020FD
:102070002DE9FC410F46054600F068FB01A800F081
:1020800061F80446019818B100F0B6FFBDE8FC8184
:10209000224EAFB170680068A8B30027291B3A46EA
:1020A000B06800F085FA00F0A7FF0028EED11C49C7
:1020B0004FF080500860BFF34F8FBFF36F8FE5E79D
:1020C000A542EBD800F098FF30682746C068C46886
:1020D000201D00F05FF9E069012810D1A0692B46AE
:1020E00041193A462046FFF733FF40B1002003462E
:1020F000014600902A46204601F010F820B1616A9E
:1021000020468847C2E707E0502080F31188BFF3DC
:102110004F8FBFF36F8FFEE70127BFE768000020F6
:1021200004ED00E006484168096829B14168C968C2
:10213000C9684968016370474FF0FF31FAE7000052
:102140002C00002070B5054600F074FE064E0446D3
:102150003069844203D200F009F8012000E0002039
:1021600028602046346170BD68000020F8B5194D24
:102170001FE0C068C4680668201D00F00BF9616AA2
:1021800020468847E069012813D1A0693044B04255
:1021900006D924616060211D286800F033F908E049
:1021A00000200346014600903246204600F0B6FF6C
:1021B00038B1286801680029DBD16968C5E90010D9
:1021C000F8BD502080F31188BFF34F8FBFF36F8F9E
:1021D000FEE700006800002008484068401C4FF0FF
:1021E000500080F3118804D0BFF34F8FBFF36F8F7F
:1021F000FEE7BFF34F8FBFF36F8FFEE7980000201D
:10220000074C2068016841B1C0680021D0F8000087
:10221000FFF72EFFFFF7C6FEF3E701210020F7E7E7
:10222000680000202DE9F041044600F00FF994F910
:10223000455004F1240609E0606A48B1304600F0D8
:10224000A3FE08B100F004FA6D1E6DB2002DF3DCA0
:102250004FF0FF3684F8456000F018F900F0F6F80A
:1022600094F9445004F1100709E0206948B1384658
:1022700000F08AFE08B100F0EBF96D1E6DB2002D82
:10228000F3DC84F84460BDE8F04100F0FFB80000E2
:102290002DE9F0410546002700F058FA314E30682C
:1022A00008B9FFF779FDF06805424BD1C5B3083591
:1022B00068070ED005F00700C0F108000544680764
:1022C00007D0502080F31188BFF34F8FBFF36F8F7B
:1022D000FEE72DB37068854234D82248103001469D
:1022E0000C6801E020460C466168A94202D22168D0
:1022F0000029F7D131688C4224D007682168016039
:1023000060680837411B10290FD96019420708D0AF
:10231000502080F31188BFF34F8FBFF36F8FFEE71C
:1023200010E041606560FFF7EDFD61687068401A7C
:102330007060B268904200D2B060F0680143002043
:10234000C4E9000100F058FE780707D0502080F360
:102350001188BFF34F8FBFF36F8FFEE73846BDE89C
:10236000F08100008000002010B5031F4FF0807442
:102370001C601B1F21F001011960191F024B0B602B
:10238000143940380A6010BDD92100080120FFF738
:10239000FBFAFBE7D0E9013201699A60D0E9012339
:1023A0005A604A68824201D182684A600022026112
:1023B0000868401E0860086870470000034B03600F
:1023C00003F15C000860802010607047280800203E
:1023D000044B036003F15C0008604FF480701060F0
:1023E00070470000840A002000F108014FF0FF321E
:1023F000C0E90112C1600161002101607047002144
:102400000161704730B50B685A1C02D000F1080218
:1024100002E0026904E02246546825689D42FAD928
:1024200053684B6099608A60516008610168491C7B
:10243000016030BD42684A6093688B609368596060
:10244000916008610168491C01607047502080F369
:102450001188BFF34F8FBFF36F8F0A494868401C44
:10246000486001280CD10848006810F0FF0F07D021
:10247000502080F31188BFF34F8FBFF36F8FFEE7BB
:10248000704700009800002004ED00E0084948680B
:1024900028B1401E486001D180F311887047502058
:1024A00080F31188BFF34F8FBFF36F8FFEE70000FB
:1024B0009800002070B5002827D0144DA0F1080422
:1024C0006168E868014207D1502080F31188BFF3AA
:1024D0004F8FBFF36F8FFEE722683AB1502080F331
:1024E0001188BFF34F8FBFF36F8FFEE781436160A9
:1024F00000F02CF960686968084468602046FFF7BE
:1025000001FDBDE8704000F077BD70BD8000002087
:102510004FF0E02000210161816105494FF47A729A
:102520000968B1FBF2F1491E416107210161704761
:102530002800002010B5FDF72BFE114910280ED3FE
:1025400000F1E02090F8F0030A78904207D2502082
:1025500080F31188BFF34F8FBFF36F8FFEE70948F9
:102560000068896800F4E060884207D9502080F351
:102570001188BFF34F8FBFF36F8FFEE710BD0000D0
:10258000980000200CED00E010B5084B002200BFC1
:1025900053F832401CB1521C082AF9D310BD43F83D
:1025A000321003EBC201486010BD00000C02002095
:1025B00070B515460E460446FFF748FF94F94410DF
:1025C0000020491C01D184F8440094F94510491CAD
:1025D00001D184F84500FFF759FFA06B28B92A46BE
:1025E000314604F1240000F051F82046BDE8704067
:1025F000FFF718BE10B5020014D00F48806B38B139
:10260000502080F31188BFF34F8FBFF36F8FFEE729
:1026100000F09CF800211046FFF798FA00F0ECFC5F
:10262000002807D105494FF080500860BFF34F8F55
:10263000BFF36F8F10BD00002C00002004ED00E000
:1026400002498A6A02604969416070472C00002093
:1026500001490120486270472C00002010B50C464B
:1026600050B1094909681831FFF7CCFE2046BDE892
:1026700010400121FFF76ABA502080F31188BFF3A0
:102680004F8FBFF36F8FFEE72C00002070B514460C
:102690000D4668B10A4909681831FFF7CBFE0CB145
:1026A0004FF0FF3521462846BDE87040FFF74EBA8F
:1026B000502080F31188BFF34F8FBFF36F8FFEE779
:1026C0002C00002030B587B00024039405AA04A98B
:1026D00003A80494FFF772FEDDE903010094CDE93D
:1026E0000110002315A11748059A00F06AFB164D4A
:1026F000002868631FD000F0E1FC012809D0401CCD
:1027000019D1502080F31188BFF34F8FBFF36F8F23
:10271000FEE7502080F31188BFF34F8FBFF36F8F18
:102720004FF0FF3028630120E8616C6107B0BDE81D
:10273000304000F045B807B030BD000049444C457A
:1027400000000000E51D00082C0000200248816BFD
:10275000491C8163704700002C000020164810B50A
:10276000816B11B10121416210BD0021416281697B
:10277000124A01E0B9B1491E01EB810352F823303E
:10278000002BF7D001EB810302EB830202F1080476
:1027900053685B685360A34201D15B685360DA6899
:1027A0000260816110BD502080F31188BFF34F8F0C
:1027B000BFF36F8FFEE700002C0000204C020020CA
:1027C0001CB5264908780190FF20087008788DF81C
:1027D00000009DF800009DF8002000F0F0009042FD
:1027E00007D0502080F31188BFF34F8FBFF36F8F56
:1027F000FEE79DF800001A4B00F05000187007200B
:10280000986005E09DF8002052008DF80020401EE1
:102810009DF800201206F5D49860032807D05020B8
:1028200080F31188BFF34F8FBFF36F8FFEE74FF434
:1028300040709860019808700A48016841F470017E
:102840000160016841F070410160FFF761FE002006
:102850005860FDF767FC00201CBD000000E400E0AC
:102860009800002020ED00E0F8B517460E46050060
:1028700014D0DEB105FB06F05030FFF709FD04006F
:102880000AD0002084F8460004F150023B4631464D
:1028900028460094FFF7D6FA2046F8BD502080F372
:1028A0001188BFF34F8FBFF36F8FFEE70020E3E780
:1028B00038B5049D18B153B1CAB181B120E05020A0
:1028C00080F31188BFF34F8FBFF36F8FFEE7502067
:1028D00080F31188BFF34F8FBFF36F8FFEE7502057
:1028E00080F31188BFF34F8FBFF36F8FFEE739B1CD
:1028F000502080F31188BFF34F8FBFF36F8FFEE737
:1029000050241C46012384F846302B460094FFF7E0
:1029100099FA204638BD000070B50D46040025D058
:10292000FFF794FDD4E90F20216802FB00116160DC
:102930000021A1632168A1600A46D4E90F01401E6D
:1029400000FB0121E16021464FF0FF3001F8440F08
:10295000487004F110008DB1FFF746FD04F124002A
:10296000FFF742FDFFF792FD012070BD502080F37C
:102970001188BFF34F8FBFF36F8FFEE721690029E6
:10298000F0D000F001FB0028ECD004494FF080505B
:102990000860BFF34F8FBFF36F8FE3E704ED00E0F4
:1029A0002DE9FF4782B01D468A464FF0000804001B
:1029B00003D0BAF1000F08D011E0502080F3118845
:1029C000BFF34F8FBFF36F8FFEE7206C38B15020FD
:1029D00080F31188BFF34F8FBFF36F8FFEE7022D97
:1029E0000AD1E06B012807D0502080F31188BFF393
:1029F0004F8FBFF36F8FFEE700F00EFA3F4F4FF09F
:102A000000094FF0805648B9049838B1502080F33F
:102A10001188BFF34F8FBFF36F8FFEE7FFF716FDEF
:102A2000A06BE16B884207D3022D05D00498D0B18A
:102A3000B8F1000F1AD01EE02A4651462046FFF793
:102A40005AF9616A19B104F1240000F09DFA20B12D
:102A50003E60BFF34F8FBFF36F8FFFF717FD01206D
:102A600006B0BDE8F087FFF711FD22E06846FFF7EA
:102A7000E7FD4FF00108FFF709FDFFF767FEFFF7DD
:102A8000E5FC94F94400401C01D184F8449094F989
:102A90004500401C01D184F84590FFF7F7FC04A9DC
:102AA000684600F027F930B12046FFF7BBFB00F085
:102AB000A3FA0020D4E7FFF7C9FCA06BE16B8842C2
:102AC00013D1FFF7E3FC04F110000499FFF7C6FDF2
:102AD0002046FFF7A7FB00F08FFA00289ED13E604A
:102AE000BFF34F8FBFF36F8F98E7FFF7CFFC204600
:102AF000FFF798FB00F080FA90E7000004ED00E09B
:102B00002DE9F0471F4690468946040003D0B9F1ED
:102B1000000F08D011E0502080F31188BFF34F8FD1
:102B2000BFF36F8FFEE7206C38B1502080F311881F
:102B3000BFF34F8FBFF36F8FFEE7022F0AD1E06B19
:102B4000012807D0502080F31188BFF34F8FBFF3C7
:102B50006F8FFEE7FFF7EEFC5020EFF3118680F356
:102B60001188BFF34F8FBFF36F8FA06BE16B88426B
:102B700006D3022F04D0002086F31188BDE8F08729
:102B800094F945503A4649462046FFF7B4F8681C88
:102B900004D06D1C84F845500120EDE7606A0028E0
:102BA000FAD004F1240000F0EFF90028F4D0B8F1D5
:102BB000000FF1D00121C8F80010EDE72DE9F7472B
:102BC000002683B08A46040003D0BAF1000F08D073
:102BD00011E0502080F31188BFF34F8FBFF36F8F48
:102BE000FEE7206C38B1502080F31188BFF34F8F7F
:102BF000BFF36F8FFEE700F00FF9DFF8F4804FF0BE
:102C000000094FF0805748B9059838B1502080F33B
:102C10001188BFF34F8FBFF36F8FFEE7FFF716FCEE
:102C2000A56BC5B151462046FFF752F86D1EA5634E
:102C3000206950B104F1100000F0A6F928B1C8F8DD
:102C40000070BFF34F8FBFF36F8FFFF71FFC0120A2
:102C500006B0BDE8F087059808B11EB106E0FFF7A1
:102C600015FC27E06846FFF7EBFC0126FFF70EFC9A
:102C7000FFF76CFDFFF7EAFB94F94400401C01D11B
:102C800084F8449094F94500401C01D184F84590A3
:102C9000FFF7FCFB05A9684600F02CF80028204649
:102CA0000AD0FFF7BFFA00F0A7F92046FFF76CF94A
:102CB0000028B3D00020CBE7FFF766F990B104F10C
:102CC00024000599FFF7CAFC2046FFF7ABFA00F095
:102CD00093F90028A2D1C8F80070BFF34F8FBFF35B
:102CE0006F8F9BE72046FFF79DFA00F085F995E787
:102CF00004ED00E02DE9F0410C46050011D0C4B10F
:102D0000FFF7A4FB174B5A696E682068911B471C9C
:102D100017D02F689B6A9F4219D0964217D801247A
:102D200010E0502080F31188BFF34F8FBFF36F8FF7
:102D3000FEE7502080F31188BFF34F8FBFF36F8FF2
:102D4000FEE70024FFF7A2FB2046BDE8F0818842A1
:102D500005D9401A20602846FFF772FCF1E70020F1
:102D60002060DCE72C0000202DE9FF5F8346DDE9D1
:102D70000E87994616468A469000FFF789FA0500A5
:102D80001CD05C20FFF784FA040014D000202563D7
:102D900084F85900CDE90240CDE900874B46324620
:102DA00051465846FFF75FF82046FEF7FDFE01202A
:102DB00004B0BDE8F09F2846FFF77CFB4FF0FF30E2
:102DC000F6E7F0B585B0DDE90B640A9DA6B1DCB18C
:102DD0005C2700972663022684F85960002604AF1A
:102DE000CDE90246CDE90057FFF73DF82046FEF752
:102DF000DBFE049805B0F0BD502080F31188BFF3CE
:102E00004F8FBFF36F8FFEE7502080F31188BFF321
:102E10004F8FBFF36F8FFEE70548C16919B1806B13
:102E200018B1002070470120704702207047000051
:102E30002C00002001484069704700002C00002051
:102E40002DE9F0412E4C0027A06B40B1206A401CB8
:102E50002062606A00B101273846BDE8F0816669EA
:102E6000761C666113D16068006838B1502080F329
:102E70001188BFF34F8FBFF36F8FFEE76068A168C3
:102E80006160A060A06A401CA062FFF74BF9206B54
:102E9000DFF87080864209D36068006880B160689E
:102EA000C068C568686886420DD220632068C06A21
:102EB00000EB800158F821000128CAD90127C8E792
:102EC0004FF0FF30F1E7281DFFF764FAA86A18B148
:102ED00005F11800FFF75EFAE86AA169884200D997
:102EE000A06100EB800108EB8100291DFFF7A2FA29
:102EF000E86A2168C96A8842CED30127CCE700007E
:102F00002C0000204C02002070B504004FF000019E
:102F100033D01B4D2868844207D0502080F311889D
:102F2000BFF34F8FBFF36F8FFEE7206D38B1401EA8
:102F30002065E36CE26A9A421FD040B11DE0502048
:102F400080F31188BFF34F8FBFF36F8FFEE7201D13
:102F5000FFF720FAE06CE062C0F13800A061E06A9F
:102F6000A969884200D9A861064900EB800001EBFD
:102F70008000211DFFF75EFA0121084670BD0000A8
:102F80002C0000204C02002070B5C068C46854B109
:102F900004F118000646FFF7FDF9144DA86B50B177
:102FA0003146134815E0502080F31188BFF34F8F4E
:102FB000BFF36F8FFEE7201DFFF7ECF9E06AA96908
:102FC000884200D9A8610B4900EB800001EB80002A
:102FD000211DFFF72FFAE06A2968C96A884202D9E1
:102FE0000120686270BD002070BD00002C00002030
:102FF000D40600204C0200202DE9F0472C4D00247F
:103000002746A86B38B1FFF721FAA86B401EA863CA
:10301000A86B40B146E0502080F31188BFF34F8F7A
:10302000BFF36F8FFEE72969224E0120D1B3A6F5C9
:10303000916980463068E0B1F068C46804F1180016
:10304000FFF7A8F9201DFFF7A5F9E06AA9698842F2
:1030500000D9A86100EB800109EB8100211DFFF779
:10306000E9F9E06A2968C96A8842E3D3C5F824808F
:10307000E0E70CB1FFF756F82C6A4CB14FEA0806AE
:10308000FFF7DEFE00B16E62641EF9D100202862F7
:10309000686A38B10849012738070860BFF34F8FC5
:1030A000BFF36F8FFFF7F2F93846BDE8F0870000F5
:1030B0002C000020D406002004ED00E010B586B0FE
:1030C000FEF7DAFD114CA068B8B10020039004901F
:1030D00005AA04A903A8FFF77BF9DDE90321022073
:1030E0008DE8070000230AA10B48059AFFF769FE47
:1030F000E06010B106B0012010BD502080F31188AF
:10310000BFF34F8FBFF36F8FFEE700006800002012
:10311000546D722053766300012200082DE9FF41AF
:103120001E46134602000A9D4FF0000016D0144CB4
:10313000A768002F0FD0CDE900130292062917DAF5
:10314000FFF76AFE02284FF000030FD00022694605
:10315000A068FFF725FC04B0BDE8F081502080F3A3
:103160001188BFF34F8FBFF36F8FFEE72A46EEE75C
:103170000023324669463846FFF7C2FCEBE7000001
:1031800068000020A03200080000000000000000DD
:103190000000000000000000000200001800000015
:1031A0000000000000000000B03200080000000035
:1031B000000000000000000000000000000200000D
:1031C000110000000000000000000000C0320008F4
:1031D00000000000000000000000000000000000EF
:1031E00000020000110000000000000000000000CC
:1031F000D0320008000000000000000000000000C5
:1032000000000000000200001800000000000000A4
:1032100000000000F832000800000000000000007C
:103220000000000000000000000200000800000094
:103230000000000000000000E8320008000000006C
:10324000000000000000000000000000000200007C
:10325000180000000000000000000000DC32000840
:10326000000000000000000000000000000000005E
:1032700000000000010202030405060708090A0B0A
:103280000C0D0E0F101000000000000000000102E5
:1032900003040607080900000000010203040000FF
:1032A0006D795461736B5F4D505536303530000089
:1032B0006D795461736B5365745370656564000078
:1032C0006D795461736B4C6564466C617368000082
:1032D0006D795461736B456E000000006D79517516
:1032E0006575654B657973006D795461736B5363D4
:1032F000616E4B65797300006D795461736B447234
:10330000617700002433000800000020A4000000C2
:103310003E190008C8330008A40000203C2A000021
:103320004E1900080000000000000000000000002E
:10333000000000000000000000000000000000008D
:103340000100000010000000000000000024F40054
:10335000000000000000000000000000000000006D
:10336000000000000000000000000000000000005D
:10337000000000000000000000000000000000004D
:10338000000000000000000000000000000000003D
:10339000000000000000000000000000000000002D
:1033A000000000000000000000000000000000001D
:1033B000000000000000000000000000000000000D
:0833C000AAAAAAAA000000005D
:04000005080000ED02
:00000001FF
